:1000000045C0000060C000005EC000005CC0000091
:100010005AC0000058C0000056C0000054C0000084
:1000200052C0000050C000004EC000004CC0000094
:100030004AC0000048C0000046C0000044C00000A4
:1000400042C0000040C000003EC000003CC00000B4
:100050003AC0000038C0000036C0000034C00000C4
:1000600032C0000030C000002EC000002CC00000D4
:100070002AC0000028C0000026C0000024C00000E4
:1000800022C0000020C000001EC0000011241FBEBE
:10009000CFEFD0E1DEBFCDBF12E0A0E0B1E0E8E2FB
:1000A000F7E000E00BBF02C007900D92A438B10743
:1000B000D9F722E0A4E8B2E001C01D92A738B20748
:1000C000E1F79DD22FC39CCF15BA8BBB81E085BBD6
:1000D00085E08A95F1F7000015BA8FE891E0019765
:1000E000F1F700C00000089588E3EEDF8FE0ECDF59
:1000F00086E0EADF81E0E8DF8FE39FE10197F1F737
:1001000000C00000089592E095BB8BBB83E085BBE7
:1001100085E08A95F1F7000095BB8FE891E00197A3
:10012000F1F700C000000895CF93DF93EB01CCDF1F
:100130008881882329F02196E6DF89918111FCCFFF
:10014000DF91CF910895CF93DF93EB01BDDF8881DD
:10015000DADFDF91CF91089588E18AB986E0809354
:1001600095001092900087E689B908955F9BFECFB5
:100170008CB108958FEF82BB8FE081BB87EF82BB8C
:1001800085E08A95F1F70000849B06C0859B06C038
:10019000869906C083E305C081E303C082E301C002
:1001A00080E29BEF92BB95E09A95F1F70000849B6B
:1001B00006C0859B06C0869905C086E303C084E31C
:1001C00001C085E39DEF92BB95E09A95F1F70000A1
:1001D000849B06C0859B06C0869905C089E303C041
:1001E00087E301C088E39EEF92BB95E09A95F1F713
:1001F0000000849B06C0859B06C0869905C083E2EB
:1002000003C08AE201C080E3809384020895B2DFD4
:10021000803291F480910B018232D1F02FEF89EF7F
:1002200090E0215080409040E1F700C0000082E261
:1002300080930B0180E2089590910B019C3051F066
:1002400090918402903239F09CE090930B010895D4
:1002500080E2089580E2089589DF809386028937DD
:1002600091F46DE071E080E85FDF6EE171E080ECB9
:100270005BDF81E08093650083E290E090938700EC
:100280008093860008958E3691F46FE271E080E8E5
:100290004BDF60E471E080EC47DF82E08093650033
:1002A00086E990E0909387008093860008958636D3
:1002B00081F461E571E080E837DF62E671E080ECAF
:1002C00033DF1092650086E990E090938700809379
:1002D000860008952F923F924F925F926F927F9285
:1002E0008F929F92AF92BF92CF92DF92EF92FF9246
:1002F0000F931F93CF93DF931F92CDB7DEB710926A
:10030000650000E010E00F2EFCE0FF2EF02D21C074
:1003100063E771E080E808DF7ADF89838032C9F023
:100320008A32B9F08332A9F0F801EF5FFE4F808383
:1003300080910C0191E0980F90930C01BE016F5FCA
:100340007F4F01DF0F5F1F4F0430110511F4F09252
:100350000A0180910A018C3009F4C0C08091090122
:100360008C30B1F6E12CF12CBBC051DF8983833294
:1003700009F05DC080910A018C3009F0A5C0E5E06C
:10038000F1E0A1E0B1E091918D91981303C02FEFBE
:10039000E21AF20AE017F107B1F784E0E816F10477
:1003A00029F56DE071E080E8BFDE6EE171E0852D3A
:1003B000BBDE81E0F6018083F50171826082FFEF90
:1003C0002BE782E9F15020408040E1F700C00000B7
:1003D00081E07ADEF601108240920A0150920C010F
:1003E000F50191828082E12CF12C9FC06FE271E0D7
:1003F00080E89ADE60E471E0852D96DEF6012082C9
:10040000F50191828082FFEF2BE782E9F1502040D5
:100410008040E1F700C0000081E056DEF601108266
:1004200040920A0150920C01E12CF12C7EC08A32DC
:1004300009F04AC080910A018C3009F045C0E5E01E
:10044000F1E0A1E0B1E091918D91981303C02FEFFD
:10045000E21AF20AE017F107B1F784E0E816F104B6
:10046000D9F464E871E080E85FDE65E971E0852D2C
:100470005BDE9FEFEBE7F2E99150E040F040E1F7FF
:1004800000C0000081E020DE50920C012CE020939F
:10049000090140920A0149C066EA71E080E844DE41
:1004A00067EB71E0852D40DE8FEF9BE7E2E981503D
:1004B0009040E040E1F700C0000081E005DE50928E
:1004C0000C0140920A0131C000992FC038BA409205
:1004D0000A0150920C011092000127C0E12CF12C6E
:1004E0000F2EF0EF3F2EF02D0F2EF2E24F2EF02DBB
:1004F0000F2EF0EC5F2EF02D09E011E00F2EF5E647
:10050000CF2ED12CF02D6894222421F80F2EF6E85E
:10051000AF2EB12CF02D0F2EF6E98F2E912CF02D51
:100520000F2EF3E26F2E712CF02D80910A01823292
:1005300009F442C0809109018C3009F016CF00E027
:1005400010E03CC068EC71E080E8EEDD60DE89839D
:100550008032C1F18A32B1F18332A1F1F801EB5F4F
:10056000FE4F808380910C0191E0980F90930C01D5
:10057000BE016F5F7F4FE7DD0F5F1F4F0430110536
:1005800009F569ED71E080E8CFDD6AEE71E080EC9D
:10059000CBDDFFEF23E284EFF15020408040E1F714
:1005A00000C0000081E090DD80EC80930C01F092AF
:1005B0000901F0920A0106C000E010E00F2EF2E2FD
:1005C000FF2EF02D80910901823229F080910A01DD
:1005D000823209F4B7CF0F90DF91CF911F910F9125
:1005E000FF90EF90DF90CF90BF90AF909F908F9053
:1005F0007F906F905F904F903F902F900895109252
:1006000061008FEF87BB18BA9FE091BB82BB9093CC
:100610006400109265008ABB84BB1BBA15BA139A9A
:10062000EBE8F0E0808182688083EAE8F0E0808196
:100630008C61808382EE94E09093810080938000AF
:1006400086E990E090938700809386004DDD84DDFD
:100650008FE891E00197F1F700C000006BEF71E0C7
:1006600080E862DD6CE072E080EC5EDD9FEFEBE73E
:10067000F2E99150E040F040E1F700C000006DE188
:1006800072E080E851DD6EE272E080EC4DDDDFE08B
:100690000F2EF6E8EF2EF12CF02D06E910E0C0EF5A
:1006A00080910001009917C0C8BB6FE372E080E839
:1006B0003BDD60E572E080EC37DD2FEF8BE792E900
:1006C000215080409040E1F700C0000081E0FCDC58
:1006D0001092000123C001991BC0D8BBF701118300
:1006E000008361E672E080E81FDD62E772E080EC83
:1006F0001BDDFFEF2BE782E9F15020408040E1F75E
:1007000000C0000081E0E0DC81E08093000108C0CF
:10071000882321F0813009F0C5CF02C09DDDC0CF14
:08072000D9DDBECFF894FFCF34
:10072800033030303030303030222222C0202020B8
:1007380020556E6C6F636B6564212020200020209B
:1007480057656C636F6D6520486F6D6521200020CB
:10075800202020204C6F636B65642120202020001E
:1007680020556E6B6E6F776E20506572736F6E20BA
:10077800002046616365204E6F7420466F756E6475
:100788002000202020202020202020202020202081
:1007980020200050617373576F72643A2020202024
:1007A800202020002020202050415353574F5244EE
:1007B800202020200020204348414E4745204D4F0F
:1007C800444520212000202057726F6E67204E7507
:1007D8006D62657220200020205472792041676183
:1007E800696E2020202120004E65775F5061737369
:1007F800576F72643A20202000506C656173652041
:1008080057616974204E6F772000536176696E676F
:100818002050775F6E756D62657200506F6C7974E9
:100828006563682046616369616C20005365637580
:10083800726974792053797374656D200020506C47
:10084800656173652053656C6563742020002053CF
:10085800656375726974795F4D6F64652020002047
:100868002020202046616369616C20202020200020
:100878005265636F676E6974696F6E204D6F64654A
:100888000020202020204B65795F506164202020C3
:1008980020002020202020204D6F6465202020206B
:0408A800202000000C
:00000001FF
